:0400000063EF00F0BA
:10000800FACF01F0FBCF02F0E9CF03F0EACF04F01A
:10001800E1CF05F0E2CF06F0D9CF07F0DACF08F04C
:10002800F3CF09F0F4CF0AF0F6CF0BF0F7CF0CF0CE
:10003800F8CF0DF0F5CF0EF09EB09DA023D03C0E6A
:10004800CF6EED0ECE6E502A090E50641AD0000EF7
:10005800506E4F2A3B0E4F6414D0000E4F6E0001B5
:100068008A2B3B0E00018A650CD0000E00018A6FB6
:100078000001892B170E0001896503D0000E0001CD
:10008800896F9E900EC0F5FF0DC0F8FF0CC0F7FFFA
:100098000BC0F6FF0AC0F4FF09C0F3FF08C0DAFF7F
:1000A80007C0D9FF06C0E2FF05C0E1FF04C0EAFFB0
:1000B80003C0E9FF02C0FBFF01C0FAFF11002FEFE8
:0200C8000CF03A
:10060000002020202020202020202020202020200A
:1006100020004C6F7720626174746572792020200D
:1006200020200052414D5041520050563A000000E7
:10063000CEEC0AF08CEC0AF067EC0CF0000E000136
:10064000766F000E0001756F000E00017D6F000EC9
:1006500000017E6F000E00017F6F040EBCEC0BF0FA
:100660000FC017F010C018F055EC0CF017C077F061
:1006700018C078F019C079F0000EBCEC0BF00FC078
:1006800017F010C018F055EC0CF017C07AF018C035
:100690007BF019C07CF082A449D1320E1D6EC60ECB
:1006A0001E6E3D0E1F6E7AC01AF07BC01BF07CC020
:1006B0001CF0B5EC07F01AC038F01BC039F01CC0B4
:1006C0003AF01AEC07F038C068F039C069F03AC067
:1006D0006AF03BC06BF068C071F069C072F0320E16
:1006E0001D6EC60E1E6E3D0E1F6E77C01AF078C0CE
:1006F0001BF079C01CF0B5EC07F01AC038F01BC035
:1007000039F01CC03AF01AEC07F038C068F039C074
:1007100069F03AC06AF03BC06BF068C073F069C022
:1007200074F077C029F078C02AF079C02BF042EC41
:100730000CF029C02CF02AC02DF02BC02EF07DC06B
:100740002FF07EC030F07FC031F044EC06F02CC0BA
:100750008BF02DC08CF02EC08DF07DC029F07EC0B6
:100760002AF07FC02BF0000E2C6E800E2D6E3F0EF7
:100770002E6E2DEC08F029C068F02AC069F02BC05D
:100780006AF07AC029F07BC02AF07CC02BF0000E02
:100790002C6E800E2D6E3F0E2E6E2DEC08F02B5021
:1007A00000016A1907E12A500001691903E1295083
:1007B00000016819D8B409D0000E84EC0CF0060EC4
:1007C000116E230E106E1AEC0CF000017651800AA7
:1007D000F36E800EF35C040ED8B4755DD8B003D010
:1007E0000001754B762B00017551040A7611D8A4CF
:1007F0003CD07DC00FF07EC010F07FC011F07AC0F9
:1008000012F07BC013F07CC014F044EC0AF0D8B0B6
:100810002CD07DC02CF07EC02DF07FC02EF0000EBD
:100820002F6E200E306E410E316E44EC06F02CC05F
:100830007DF02DC07EF02EC07FF0C00E0F6E7F0EBB
:10084000106E440E116E7DC012F07EC013F07FC09A
:1008500014F044EC0AF0D8B063D0C00E00017D6FF4
:100860007F0E00017E6F440E59D000017C510001C3
:100870007F1909E100017B5100017E1904E10001AB
:100880007A5100017D19D8A40AD0000E84EC0CF036
:10089000060E116E0B0E106E1AEC0CF047D0000114
:1008A0007551040A7611D8A441D07AC00FF07BC0EC
:1008B00010F07CC011F07DC012F07EC013F07FC03C
:1008C00014F044EC0AF0D8B031D07DC038F07EC0CE
:1008D00039F07FC03AF0000E3B6E200E3C6E410EA8
:1008E0003D6EFFEC0BF038C07DF039C07EF03AC0B1
:1008F0007FF000017F51800A800F07E1000E0001A8
:100900007E5D03E1000E00017D5DD8B009D0000ED0
:1009100000017D6F000E00017E6F000E00017F6FF1
:10092000000E0001766F000E0001756F82B46FD06B
:10093000000E84EC0CF0060E116E0B0E106E1AEC0D
:100940000CF0320E1D6EC60E1E6E3D0E1F6E7AC06E
:100950001AF07BC01BF07CC01CF0B5EC07F01AC08D
:1009600038F01BC039F01CC03AF01AEC07F038C060
:1009700068F039C069F03AC06AF03BC06BF068C0FB
:1009800071F069C072F0320E1D6EC60E1E6E3D0E05
:100990001F6E77C01AF078C01BF079C01CF0B5EC60
:1009A00007F01AC038F01BC039F01CC03AF01AEC3E
:1009B00007F038C068F039C069F03AC06AF03BC04F
:1009C0006BF068C073F069C074F077C029F078C02C
:1009D0002AF079C02BF042EC0CF029C02CF02AC090
:1009E0002DF02BC02EF07AC02FF07BC030F07CC0F1
:1009F00031F044EC06F02CC08BF02DC08CF02EC0F2
:100A00008DF077C07DF078C07EF079C07FF0000E69
:100A10002C6E7F0E2D6E430E2E6E000E1D6EC60EBA
:100A20001E6E420E1F6E040EBCEC0BF0D8901032FE
:100A30000F32D89010320F320FC017F010C018F0DC
:100A400055EC0CF017C01AF018C01BF019C01CF0C0
:100A5000B5EC07F01AC029F01BC02AF01CC02BF01F
:100A60002DEC08F029C038F02AC039F02BC03AF03C
:100A70001AEC07F038C068F039C069F03AC06AF083
:100A80003BC06BF068C06FF069C070F06FC0ADFF25
:100A900071C016F072C017F073C018F074C019F06E
:100AA0009EEC08F0FAEC08F040EC0BF0790E1D6EAD
:100AB000950E1E6E400E1F6E80C01AF081C01BF096
:100AC00082C01CF0B5EC07F01AC029F01BC02AF058
:100AD0001CC02BF042EC0CF029C02FF02AC030F0E3
:100AE0002BC031F0450E1D6E9A0E1E6E400E1F6E0D
:100AF0008BC01AF08CC01BF08DC01CF0B5EC07F059
:100B00001AC02CF01BC02DF01CC02EF044EC06F0D7
:100B10002CC06CF02DC06DF02EC06EF06CC02CF0AF
:100B20006DC02DF06EC02EF083C02FF084C030F069
:100B300085C031F044EC06F02CC086F02DC087F063
:100B40002EC088F086C00FF087C010F088C011F06A
:100B5000C00E126E7F0E136E440E146E44EC0AF03B
:100B6000D8A009D0C00E0001866F7F0E0001876FEC
:100B7000440E0001886F000E0F6E000E106E000E06
:100B8000116E86C012F087C013F088C014F044ECD8
:100B90000AF0D8A009D0000E0001866F000E0001F7
:100BA000876F000E0001886F86C038F087C039F06B
:100BB00088C03AF01AEC07F038C068F039C069F024
:100BC0003AC06AF03BC06BF068C041F069C042F0C7
:100BD00098EC0BF08BC080F08CC081F08DC082F05F
:100BE00086C083F087C084F088C085F0820E000143
:100BF000686FDE0EE82EFED7682FFCD7820E00014C
:100C0000686FDE0EE82EFED7682FFCD7820E00013B
:100C1000686FDE0EE82EFED7682FFCD7820E00012B
:100C2000686FDE0EE82EFED7682FFCD7740E000129
:100C3000686F940EE82EFED7682FFCD700D080A2F4
:100C40000DD00001892B00018951180AD8A403D0C6
:100C5000000E0001896F80A200D5FDD780A40DD0C1
:100C600000018A2B00018A513C0AD8A403D0000E4F
:100C700000018A6F80A4F1D4FDD780A6EED4000EC7
:100C80004F6E80A6EAD4FDD72EC032F0336A346AA4
:100C90002D34323601E333803250376E31C032F0BA
:100CA000336A346A3034323601E333803250366E80
:100CB0003750D8B40CD03650375CD8B00FD037503E
:100CC00000083624326E190E325CD8A007D02FC02F
:100CD0002CF030C02DF031C02EF012003650D8B4B8
:100CE0000CD03750365CD8B00FD0365000083724BF
:100CF000326E190E325CD8A007D02CC02CF02DC05B
:100D00002DF02EC02EF01200060E356E2EBE358E42
:100D100031BE358C2D8EFF0E2C16FF0E2D16000EBB
:100D20002E16308EFF0E2F16FF0E3016000E3116C7
:100D30003650375CD8B01AD0D8902F36303631368E
:100D4000360636503718D8B40DD0350635C032F0D7
:100D5000070E3216D8B406D0EFD7D8902E322D32E7
:100D60002C32372A36503762F8D71DD03750365CD0
:100D7000D8B019D0D8902C362D362E3637063650AE
:100D80003718D8B40DD0350635C032F0070E3216FC
:100D9000D8B406D0EFD7D890313230322F32362A3D
:100DA00036503762F8D735AE0CD0FF0E2C1AFF0E36
:100DB0002D1AFF0E2E1A010E2C26000E2D22000ECB
:100DC0002E2235AC0CD0FF0E2F1AFF0E301AFF0E5C
:100DD000311A010E2F26000E3022000E3122000E95
:100DE000356E2C502F262D5030222E50312231AE10
:100DF0000ED0FF0E2F1AFF0E301AFF0E311A010E01
:100E00002F26000E3022000E3122010E356E2FC02B
:100E10000FF030C010F031C011F037C012F035C003
:100E200013F056EC09F00FC02CF010C02DF011C0DB
:100E30002EF012003AC03CF03D6A3E6A39343C362E
:100E400001E33D803C500001656F0001656709D0FA
:100E5000000E386E000E396E000E3A6E000E3B6EBC
:100E60001200170E3C6E38C03DF039C03EF03AC05B
:100E70003FF03C28406E04D0D8903F323E323D32A5
:100E8000402EFAD73D500001606F398EFF0E3816A4
:100E9000FF0E3916000E3A1638500001616F3950B6
:100EA0000001626F3A500001636F0001646B8E0EA7
:100EB0000001655F000165AF20D000016551800A27
:100EC0003C6EF10E800A3C5CD8B009D0000E386E42
:100ED000000E396E000E3A6E000E3B6E12000001DD
:100EE000D8900001643300016333000162330001D4
:100EF00061330001653FF3D71CD0170E0001656513
:100F000015D0000E386E000E396E000E3A6E000ECF
:100F10003B6E12000001D89000016137000162377A
:100F20000001633700016437000165070001656750
:100F3000F1D700016051D8B40FD00001641F000147
:100F4000631F0001621F0001616D000E000162233A
:100F5000000163230001642361C038F062C039F0EE
:100F600063C03AF064C03BF012001CC020F0216A5C
:100F7000226A1B34203601E321802050236E236631
:100F800007D0000E1A6E000E1B6E000E1C6E1200B3
:100F90001FC020F0216A226A1E34203601E321801E
:100FA0002050286E286607D0000E1A6E000E1B6EA9
:100FB000000E1C6E120028507B0F23261CC028F048
:100FC0001F50281A800E28161B8E1E8EFF0E1D160F
:100FD000FF0E1E16000E1F16000E246E000E256E4C
:100FE000000E266E070E276E1AA006D01D5024266E
:100FF0001E5025221F502622D8901C321B321A3236
:10100000D8901D361E361F36272EEED7090E276EB6
:101010001AA006D01D5024261E5025221F5026221D
:10102000D8901C321B321A32D89026322532243204
:10103000272EEED724C00FF025C010F026C011F0E7
:1010400023C012F028C013F056EC09F00FC01AF0BC
:1010500010C01BF011C01CF012002BC02FF0306A22
:10106000316A2A342F3601E330802F50366E3666CF
:1010700007D0000E296E000E2A6E000E2B6E120095
:101080002EC02FF0306A316A2D342F3601E33080C4
:101090002F50376E376607D0000E296E000E2A6E6D
:1010A000000E2B6E1200000E336E000E346E000E1A
:1010B000356E3750890F365E2BC037F02E50371AF9
:1010C000800E37162A8EFF0E2916FF0E2A16000EE6
:1010D0002B162D8EFF0E2C16FF0E2D16000E2E1623
:1010E000180E326ED8903336343635362C50295C93
:1010F0002D502A582E502B58D8A007D02C50295E9E
:101100002D502A5A2E502B5A3380D89029362A3601
:101110002B36322EE7D733C00FF034C010F035C075
:1011200011F036C012F037C013F056EC09F00FC0C2
:1011300029F010C02AF011C02BF0120016C01AF0CE
:1011400017C01BF018C01CF019C01DF00A0E84EC6B
:101150000CF0530E0CEC0BF0500E0CEC0BF03A0EA6
:101160000CEC0BF01AC00FF01BC010F0000E126E4A
:101170000A0E116E6FEC0BF00F50300F0CEC0BF0F1
:101180001AC00FF01BC010F0000E126E0A0E116E86
:10119000DEEC0BF00F50300F0CEC0BF0250E0CECCE
:1011A0000BF04A0E84EC0CF0060E116E2A0E106E37
:1011B0001AEC0CF01CC00FF01DC010F0000E126EE7
:1011C0000A0E116E6FEC0BF00F50300F0CEC0BF0A1
:1011D0001CC00FF01DC010F0000E126E0A0E116E32
:1011E000DEEC0BF00F50300F0CEC0BF0250E0CEC7E
:1011F0000BF01200400E84EC0CF0000189C00FF0DF
:10120000106A000E126E0A0E116EAAEC09F00F5051
:10121000300F0CEC0BF0000189C00FF0106A000ECB
:10122000126E0A0E116EFCEC09F00F50300F0CEC30
:101230000BF03A0E0CEC0BF000018AC00FF0106AB4
:10124000000E126E0A0E116EAAEC09F00F50300F4C
:101250000CEC0BF000018AC00FF0106A000E126E49
:101260000A0E116EFCEC09F00F50300F0CEC0BF075
:101270003A0E0CEC0BF04FC00FF0106A000E126E1D
:101280000A0E116EAAEC09F00F50300F0CEC0BF0A7
:101290004FC00FF0106A000E126E0A0E116EFCECB9
:1012A00009F00F50300F0CEC0BF012001250D8B4B4
:1012B00005D00F5010101110D8A40CD0000E0F6ED6
:1012C000000E106E000E116E1200122AD89011320C
:1012D00010320F32000E0F14146E000E1014156E23
:1012E000FE0E1114166E145015101610D8B40CD032
:1012F000ECD7122A010E0F26000E1022000E11222A
:10130000D890113210320F32000E0F14146E000EEE
:101310001014156EFF0E1114166E145015101610C1
:10132000D8B406D0E6D71206D8900F36103611364C
:1013300010AEF9D712A0109ED8901232125011128E
:101340001350D8A4118E0FC00FF010C010F011C0B0
:1013500011F01200000E146E1250800AF36E800E0F
:10136000F35C000ED8B4115CD8B006D0116C121E1C
:10137000D8B0122A010E146E1050800AF36E800E3F
:10138000F35C000ED8B40F5CD8B006D00F6C101E02
:10139000D8B0102A010E141A000E166E000E156E2B
:1013A00012501110D8B41CD0010E136E04D0D89076
:1013B00011361236132A12AEFAD7D89015361636D1
:1013C00011500F5C12501058D8A005D011500F5E6C
:1013D0001250105A1580D89012321132132EEDD7B8
:1013E0001450D8B404D0156C161ED8B0162A15C0E7
:1013F0000FF016C010F01200000E146E1050800A8C
:10140000F36E800EF35C000ED8B40F5CD8B006D03B
:101410000F6C101ED8B0102A010E146E1250800AE4
:10142000F36E800EF35C000ED8B4115CD8B004D01B
:10143000116C121ED8B0122A12501110D8B418D044
:10144000010E136E04D0D89011361236132A12AE44
:10145000FAD711500F5C12501058D8A004D0115078
:101460000F5E1250105AD89012321132132EF1D74B
:101470001450D8B404D00F6C101ED8B0102A0FC06E
:101480000FF010C010F0120011AE16D00FC015F002
:1014900010C016F011C017F0151E161E171E152AC3
:1014A000000E16221722000E15240F6E000E1620B5
:1014B000106E800E1720116E14AE16D012C015F0EB
:1014C00013C016F014C017F0151E161E171E152A8D
:1014D000000E16221722000E1524126E000E162082
:1014E000136E800E1720146E000E0F1A000E101AC5
:1014F000800E111A000E121A000E131A800E141A02
:1015000012500F5C1350105814501158D8B002D01C
:10151000D8901200D88012008A9A8A98340E116EE0
:10152000F20EE82EFED7112EFCD78A808A828A948A
:101530008B968A8800F08A98080E116ECA0EE82EE3
:10154000FED7112EFCD78A8800F08A98030E116E00
:10155000980EE82EFED7112EFCD78A8800F08A98C4
:10156000030E116E980EE82EFED7112EFCD78A902E
:101570008A8800F08A98030E116E980EE82EFED726
:10158000112EFCD7280E8CEC0CF00C0E8CEC0CF011
:10159000060E8CEC0CF077EC0CF01200210E0F0113
:1015A000386F080E0F01396F000E0F013A6F9280ED
:1015B0009282928492869298928A94969386080E4A
:1015C000936E8A0EC06E000EC16E010EC26E110EB9
:1015D000CD6E3C0ECF6EED0ECE6E010E0F01486F3C
:1015E000BB680C0E0F01546F040EBA6E7950FC0BE1
:1015F0000209796E7984799A798E79987996778AC1
:101600000F01428F300E0F014213010E9D6E010E2D
:101610009F6EC00EF26E12000F6E0FAE02D08B8660
:1016200001D08B960FAC02D08A8401D08A940FAA85
:1016300002D08A8201D08A920FA802D08A8001D07B
:101640008A908A8800F08A980FA602D08B8601D0F3
:101650008B960FA402D08A8401D08A940FA202D064
:101660008A8201D08A920FA002D08A8001D08A900B
:101670008A8800F08A98100EE82EFED700D012005B
:1016800079AC1200400E84EC0CF0060E116E120EB6
:10169000106E1AEC0CF00A0E136E1350D8B408D06A
:1016A000820E126EDE0EE82EFED7122EFCD7130627
:1016B000400E84EC0CF0060E116E010E106E1AEC4A
:1016C0000CF00A0E136E1350D8B41200820E126E74
:1016D000DE0EE82EFED7122EFCD713061200000EE7
:1016E000146E000E136E12501110D8B41CD0010EDF
:1016F000156E04D0D89011361236152A12AEFAD7CC
:10170000D8901336143611500F5C12501058D8A0D0
:1017100005D011500F5E1250105A1380D89012321B
:101720001132152EEDD713C00FF014C010F01200B7
:1017300041C066F042C067F00001D890673366335D
:101740000001D8906733663366C047F067C048F041
:10175000030E4114496E4A6A47C055FF49C066F0FE
:101760000001663BF00E66170F015451CF0B0001CC
:1017700066110F01546F1200136E13C011F0D89050
:101780001136D8901136C250830B1110C26E020E62
:10179000E82EFED700D0C282C2B2FED7C4CF43F03B
:1017A000446AC3CF45F0466A4350126E116A4550F1
:1017B00011100F6E46501210106E120012501110C0
:1017C000D8B418D0010E136E04D0D890113612364A
:1017D000132A12AEFAD711500F5C12501058D8A02D
:1017E00004D011500F5E1250105AD890123211329C
:1017F000132EF1D70FC00FF010C010F01200000E22
:101800003B1A000E3C1A800E3D1A38C02CF039C02D
:101810002DF03AC02EF03BC02FF03CC030F03DC060
:1018200031F044EC06F02CC038F02DC039F02EC059
:101830003AF012000AD010C0F6FF11C0F7FF0800FE
:10184000F5500CEC0BF0104A112A10C0F6FF11C035
:10185000F7FF0800F5500009D8B41200ECD700EEED
:1018600080F00E0EEE6AE806FDE100EE43F00E0E8B
:10187000EE6AE806FDE1000EF86E060EF76E000156
:1018800018EF03F07F0E2B142A102910D8B406D0BD
:10189000000E291A000E2A1A800E2B1A29C029F0D0
:1018A0002AC02AF02BC02BF0120017C00FF018C06E
:1018B00010F0116A8E0E126E000E136E56EC09F0C7
:1018C0000FC017F010C018F011C019F01200948C5E
:1018D000948E0F013A9D0F013A9F0C0EAF6E000ED1
:1018E000B06EB886AC94AC98AC8AAB8E12008A9A73
:1018F000010E0CEC0BF08A8A030E106E980EE82E87
:10190000FED7102EFCD71200106E8A9A1050800F4E
:101910000CEC0BF08A8A1200106E8A9A10500CECB4
:061920000BF08A8A1200A0
:020000040020DA
:08000000FFFFFFFFFFFFFFFF00
:020000040030CA
:0E000000FF21183CFFB781FF0FC00FE00F403B
:00000001FF
